:020000040000FA
:0400000014EF00F009
:100008002482FACF01F0FBCF02F0F2BAF2A402D0B8
:10001800F5EC00F002C0FBFF01C0FAFF24921100CA
:1000280008EF01F015EC01F0F28E000E116E000ED3
:10003800126E000E136E000E146E000E156E000E7A
:10004800166E000E176E000E186E37EC01F0196E62
:10005800195031EC01F011501A5C0B6E12501B58FC
:100068000C6E13501C580D6E14501D580E6E0E5009
:100078000D100C1004E1640E0B5CD8A00AD01AC055
:1000880011F01BC012F01CC013F01DC014F06CEC72
:1000980000F015501A5C0B6E16501B580C6E17505A
:1000A8001C580D6E18501D580E6E0E500D100C1069
:1000B80004E1640E0B5CD8A0C8D71AC015F01BC0A9
:1000C80016F01CC017F01DC018F0A3EC00F0BDD747
:1000D8001EC007F01FC008F08990000E0A6E000EBF
:1000E800096E010E0714056E066A899405500610FC
:1000F800D8A403D0036A032A01D0036A03468950AF
:100108000318FD0B0318896E00F08984D890083015
:10011800036E0730076E03C008F000F0094A0A2A88
:100128000ABEDFD70A5004E1100E095CD8A0D9D75F
:100138008984898000F08984899000F01200000E7B
:10014800056E899600F0898600F08996000E046E87
:10015800000E036E00F005500524056E899A80A8EC
:1001680002D0010E01D0000E051200F0898A034A60
:10017800042A04BEEFD7045004E1100E035CD8A093
:10018800E9D705C020F01200000ED76EE70ED66E34
:10019800E70E236EF294F28A4A0E036E020E046E84
:1001A8002CEC01F0D00ED56E000E1A6E000E1B6EF0
:1001B800000E1C6E000E1D6E1200000E896E000EE1
:1001C8008A6E000E8B6ED00E926E93689468FC0E49
:1001D8000F013A6F3F0E396F000E386F6168F18E6C
:1001E8001200F29423C0D6FF21502210D8B4120076
:1001F80001D812000500FA6E2150FD6E2250FE6EE5
:10020800F850FF6EFA50120000EE1AF0070EEE6A70
:10021800E806FDE124902492000EF86E000116EF26
:1002280000F035EC01F0E1EC00F01EEC01F0C8EC58
:1002380000F01200400ED36E040ED26E800E9B6E3C
:100248001200010E1A26000E1B221C221D2212006B
:1002580003C021F004C022F01200036E03C01FF097
:0A0268001200D09E12002050120078
:020000040020DA
:08000000FFFFFFFFFFFFFFFF00
:020000040030CA
:0E000000FF281F3CFFBF85FF03C003E0034045
:00000001FF
